{
  "contractName": "BasicExample",
  "abi": [
    {
      "constant": false,
      "inputs": [
        {
          "name": "newNumber",
          "type": "uint256"
        }
      ],
      "name": "setNumber",
      "outputs": [],
      "payable": false,
      "stateMutability": "nonpayable",
      "type": "function"
    },
    {
      "constant": true,
      "inputs": [],
      "name": "getNumber",
      "outputs": [
        {
          "name": "",
          "type": "uint256"
        }
      ],
      "payable": false,
      "stateMutability": "view",
      "type": "function"
    }
  ],
  "bytecode": "0x608060405234801561001057600080fd5b5060be8061001f6000396000f3fe6080604052348015600f57600080fd5b5060043610604e577c010000000000000000000000000000000000000000000000000000000060003504633fb5c1cb81146053578063f2c9ecd814606f575b600080fd5b606d60048036036020811015606757600080fd5b50356087565b005b6075608c565b60408051918252519081900360200190f35b600055565b6000549056fea165627a7a72305820301b1243bc6c33f0d6d56360c89fa9c0750c225e9b25090f8851245c2da6584e0029",
  "source": "pragma solidity 0.5.7;\n\n\n/**\n * @title An amazing project called BasicExample\n * @dev This contract is the base of our project\n */\ncontract BasicExample {\n    uint256 private number;\n\n    /**\n     * @dev Sets the number\n     * @param newNumber The new number to store\n     */\n    function setNumber(uint256 newNumber) external {\n        number = newNumber;\n    }\n\n    /**\n     * @dev Gets the stored number\n     * @return The number as an uint\n     */\n    function getNumber() external view returns (uint256) {\n        return number;\n    }\n}\n",
  "sourcePath": "/Users/clement/Documents/Dev/sandbox/BasicExample/contracts/BasicExample.sol",
  "compiler": {
    "name": "solc",
    "version": "0.5.7+commit.6da8b019.Emscripten.clang"
  },
  "schemaVersion": "3.0.9",
  "updatedAt": "2019-06-08T22:47:45.629Z",
  "devdoc": {
    "details": "This contract is the base of our project",
    "methods": {
      "getNumber()": {
        "details": "Gets the stored number",
        "return": "The number as an uint"
      },
      "setNumber(uint256)": {
        "details": "Sets the number",
        "params": {
          "newNumber": "The new number to store"
        }
      }
    },
    "title": "An amazing project called BasicExample"
  },
  "userdoc": {
    "methods": {}
  }
}